{
  "contractName": "BuddieThePlatypus",
  "abi": [
    {
      "inputs": [
        {
          "internalType": "string",
          "name": "_URI",
          "type": "string"
        },
        {
          "internalType": "address[]",
          "name": "_payees",
          "type": "address[]"
        },
        {
          "internalType": "uint256[]",
          "name": "_shares",
          "type": "uint256[]"
        }
      ],
      "stateMutability": "nonpayable",
      "type": "constructor"
    },
    {
      "anonymous": false,
      "inputs": [
        {
          "indexed": true,
          "internalType": "address",
          "name": "owner",
          "type": "address"
        },
        {
          "indexed": true,
          "internalType": "address",
          "name": "approved",
          "type": "address"
        },
        {
          "indexed": true,
          "internalType": "uint256",
          "name": "tokenId",
          "type": "uint256"
        }
      ],
      "name": "Approval",
      "type": "event"
    },
    {
      "anonymous": false,
      "inputs": [
        {
          "indexed": true,
          "internalType": "address",
          "name": "owner",
          "type": "address"
        },
        {
          "indexed": true,
          "internalType": "address",
          "name": "operator",
          "type": "address"
        },
        {
          "indexed": false,
          "internalType": "bool",
          "name": "approved",
          "type": "bool"
        }
      ],
      "name": "ApprovalForAll",
      "type": "event"
    },
    {
      "anonymous": false,
      "inputs": [
        {
          "indexed": true,
          "internalType": "contract IERC20",
          "name": "token",
          "type": "address"
        },
        {
          "indexed": false,
          "internalType": "address",
          "name": "to",
          "type": "address"
        },
        {
          "indexed": false,
          "internalType": "uint256",
          "name": "amount",
          "type": "uint256"
        }
      ],
      "name": "ERC20PaymentReleased",
      "type": "event"
    },
    {
      "anonymous": false,
      "inputs": [
        {
          "indexed": true,
          "internalType": "address",
          "name": "previousOwner",
          "type": "address"
        },
        {
          "indexed": true,
          "internalType": "address",
          "name": "newOwner",
          "type": "address"
        }
      ],
      "name": "OwnershipTransferred",
      "type": "event"
    },
    {
      "anonymous": false,
      "inputs": [
        {
          "indexed": false,
          "internalType": "address",
          "name": "account",
          "type": "address"
        },
        {
          "indexed": false,
          "internalType": "uint256",
          "name": "shares",
          "type": "uint256"
        }
      ],
      "name": "PayeeAdded",
      "type": "event"
    },
    {
      "anonymous": false,
      "inputs": [
        {
          "indexed": false,
          "internalType": "address",
          "name": "from",
          "type": "address"
        },
        {
          "indexed": false,
          "internalType": "uint256",
          "name": "amount",
          "type": "uint256"
        }
      ],
      "name": "PaymentReceived",
      "type": "event"
    },
    {
      "anonymous": false,
      "inputs": [
        {
          "indexed": false,
          "internalType": "address",
          "name": "to",
          "type": "address"
        },
        {
          "indexed": false,
          "internalType": "uint256",
          "name": "amount",
          "type": "uint256"
        }
      ],
      "name": "PaymentReleased",
      "type": "event"
    },
    {
      "anonymous": false,
      "inputs": [
        {
          "indexed": true,
          "internalType": "address",
          "name": "from",
          "type": "address"
        },
        {
          "indexed": true,
          "internalType": "address",
          "name": "to",
          "type": "address"
        },
        {
          "indexed": true,
          "internalType": "uint256",
          "name": "tokenId",
          "type": "uint256"
        }
      ],
      "name": "Transfer",
      "type": "event"
    },
    {
      "inputs": [
        {
          "internalType": "address",
          "name": "to",
          "type": "address"
        },
        {
          "internalType": "uint256",
          "name": "tokenId",
          "type": "uint256"
        }
      ],
      "name": "approve",
      "outputs": [],
      "stateMutability": "nonpayable",
      "type": "function"
    },
    {
      "inputs": [
        {
          "internalType": "address",
          "name": "owner",
          "type": "address"
        }
      ],
      "name": "balanceOf",
      "outputs": [
        {
          "internalType": "uint256",
          "name": "",
          "type": "uint256"
        }
      ],
      "stateMutability": "view",
      "type": "function",
      "constant": true
    },
    {
      "inputs": [
        {
          "internalType": "uint256",
          "name": "tokenId",
          "type": "uint256"
        }
      ],
      "name": "getApproved",
      "outputs": [
        {
          "internalType": "address",
          "name": "",
          "type": "address"
        }
      ],
      "stateMutability": "view",
      "type": "function",
      "constant": true
    },
    {
      "inputs": [
        {
          "internalType": "address",
          "name": "owner",
          "type": "address"
        },
        {
          "internalType": "address",
          "name": "operator",
          "type": "address"
        }
      ],
      "name": "isApprovedForAll",
      "outputs": [
        {
          "internalType": "bool",
          "name": "",
          "type": "bool"
        }
      ],
      "stateMutability": "view",
      "type": "function",
      "constant": true
    },
    {
      "inputs": [],
      "name": "name",
      "outputs": [
        {
          "internalType": "string",
          "name": "",
          "type": "string"
        }
      ],
      "stateMutability": "view",
      "type": "function",
      "constant": true
    },
    {
      "inputs": [],
      "name": "owner",
      "outputs": [
        {
          "internalType": "address",
          "name": "",
          "type": "address"
        }
      ],
      "stateMutability": "view",
      "type": "function",
      "constant": true
    },
    {
      "inputs": [
        {
          "internalType": "uint256",
          "name": "tokenId",
          "type": "uint256"
        }
      ],
      "name": "ownerOf",
      "outputs": [
        {
          "internalType": "address",
          "name": "",
          "type": "address"
        }
      ],
      "stateMutability": "view",
      "type": "function",
      "constant": true
    },
    {
      "inputs": [
        {
          "internalType": "uint256",
          "name": "index",
          "type": "uint256"
        }
      ],
      "name": "payee",
      "outputs": [
        {
          "internalType": "address",
          "name": "",
          "type": "address"
        }
      ],
      "stateMutability": "view",
      "type": "function",
      "constant": true
    },
    {
      "inputs": [
        {
          "internalType": "address payable",
          "name": "account",
          "type": "address"
        }
      ],
      "name": "release",
      "outputs": [],
      "stateMutability": "nonpayable",
      "type": "function"
    },
    {
      "inputs": [
        {
          "internalType": "contract IERC20",
          "name": "token",
          "type": "address"
        },
        {
          "internalType": "address",
          "name": "account",
          "type": "address"
        }
      ],
      "name": "release",
      "outputs": [],
      "stateMutability": "nonpayable",
      "type": "function"
    },
    {
      "inputs": [
        {
          "internalType": "contract IERC20",
          "name": "token",
          "type": "address"
        },
        {
          "internalType": "address",
          "name": "account",
          "type": "address"
        }
      ],
      "name": "released",
      "outputs": [
        {
          "internalType": "uint256",
          "name": "",
          "type": "uint256"
        }
      ],
      "stateMutability": "view",
      "type": "function",
      "constant": true
    },
    {
      "inputs": [
        {
          "internalType": "address",
          "name": "account",
          "type": "address"
        }
      ],
      "name": "released",
      "outputs": [
        {
          "internalType": "uint256",
          "name": "",
          "type": "uint256"
        }
      ],
      "stateMutability": "view",
      "type": "function",
      "constant": true
    },
    {
      "inputs": [],
      "name": "renounceOwnership",
      "outputs": [],
      "stateMutability": "nonpayable",
      "type": "function"
    },
    {
      "inputs": [
        {
          "internalType": "address",
          "name": "from",
          "type": "address"
        },
        {
          "internalType": "address",
          "name": "to",
          "type": "address"
        },
        {
          "internalType": "uint256",
          "name": "tokenId",
          "type": "uint256"
        }
      ],
      "name": "safeTransferFrom",
      "outputs": [],
      "stateMutability": "nonpayable",
      "type": "function"
    },
    {
      "inputs": [
        {
          "internalType": "address",
          "name": "from",
          "type": "address"
        },
        {
          "internalType": "address",
          "name": "to",
          "type": "address"
        },
        {
          "internalType": "uint256",
          "name": "tokenId",
          "type": "uint256"
        },
        {
          "internalType": "bytes",
          "name": "_data",
          "type": "bytes"
        }
      ],
      "name": "safeTransferFrom",
      "outputs": [],
      "stateMutability": "nonpayable",
      "type": "function"
    },
    {
      "inputs": [
        {
          "internalType": "address",
          "name": "operator",
          "type": "address"
        },
        {
          "internalType": "bool",
          "name": "approved",
          "type": "bool"
        }
      ],
      "name": "setApprovalForAll",
      "outputs": [],
      "stateMutability": "nonpayable",
      "type": "function"
    },
    {
      "inputs": [
        {
          "internalType": "address",
          "name": "account",
          "type": "address"
        }
      ],
      "name": "shares",
      "outputs": [
        {
          "internalType": "uint256",
          "name": "",
          "type": "uint256"
        }
      ],
      "stateMutability": "view",
      "type": "function",
      "constant": true
    },
    {
      "inputs": [
        {
          "internalType": "bytes4",
          "name": "interfaceId",
          "type": "bytes4"
        }
      ],
      "name": "supportsInterface",
      "outputs": [
        {
          "internalType": "bool",
          "name": "",
          "type": "bool"
        }
      ],
      "stateMutability": "view",
      "type": "function",
      "constant": true
    },
    {
      "inputs": [],
      "name": "symbol",
      "outputs": [
        {
          "internalType": "string",
          "name": "",
          "type": "string"
        }
      ],
      "stateMutability": "view",
      "type": "function",
      "constant": true
    },
    {
      "inputs": [
        {
          "internalType": "contract IERC20",
          "name": "token",
          "type": "address"
        }
      ],
      "name": "totalReleased",
      "outputs": [
        {
          "internalType": "uint256",
          "name": "",
          "type": "uint256"
        }
      ],
      "stateMutability": "view",
      "type": "function",
      "constant": true
    },
    {
      "inputs": [],
      "name": "totalReleased",
      "outputs": [
        {
          "internalType": "uint256",
          "name": "",
          "type": "uint256"
        }
      ],
      "stateMutability": "view",
      "type": "function",
      "constant": true
    },
    {
      "inputs": [],
      "name": "totalShares",
      "outputs": [
        {
          "internalType": "uint256",
          "name": "",
          "type": "uint256"
        }
      ],
      "stateMutability": "view",
      "type": "function",
      "constant": true
    },
    {
      "inputs": [
        {
          "internalType": "address",
          "name": "from",
          "type": "address"
        },
        {
          "internalType": "address",
          "name": "to",
          "type": "address"
        },
        {
          "internalType": "uint256",
          "name": "tokenId",
          "type": "uint256"
        }
      ],
      "name": "transferFrom",
      "outputs": [],
      "stateMutability": "nonpayable",
      "type": "function"
    },
    {
      "inputs": [
        {
          "internalType": "address",
          "name": "newOwner",
          "type": "address"
        }
      ],
      "name": "transferOwnership",
      "outputs": [],
      "stateMutability": "nonpayable",
      "type": "function"
    },
    {
      "stateMutability": "payable",
      "type": "receive",
      "payable": true
    },
    {
      "inputs": [
        {
          "internalType": "uint256",
          "name": "_count",
          "type": "uint256"
        }
      ],
      "name": "publicMint",
      "outputs": [],
      "stateMutability": "payable",
      "type": "function",
      "payable": true
    },
    {
      "inputs": [],
      "name": "getTotal",
      "outputs": [
        {
          "internalType": "uint256",
          "name": "",
          "type": "uint256"
        }
      ],
      "stateMutability": "view",
      "type": "function",
      "constant": true
    },
    {
      "inputs": [],
      "name": "getPrice",
      "outputs": [
        {
          "internalType": "uint256",
          "name": "",
          "type": "uint256"
        }
      ],
      "stateMutability": "view",
      "type": "function",
      "constant": true
    },
    {
      "inputs": [
        {
          "internalType": "string",
          "name": "_URI",
          "type": "string"
        }
      ],
      "name": "setURI",
      "outputs": [],
      "stateMutability": "nonpayable",
      "type": "function"
    },
    {
      "inputs": [
        {
          "internalType": "uint256",
          "name": "_price",
          "type": "uint256"
        }
      ],
      "name": "setPrice",
      "outputs": [],
      "stateMutability": "nonpayable",
      "type": "function"
    },
    {
      "inputs": [
        {
          "internalType": "uint256",
          "name": "tokenId",
          "type": "uint256"
        }
      ],
      "name": "tokenURI",
      "outputs": [
        {
          "internalType": "string",
          "name": "",
          "type": "string"
        }
      ],
      "stateMutability": "view",
      "type": "function",
      "constant": true
    }
  ],
  "bytecode": "0x60806040526103e7600f55600060105567a688906bd8b000006011553480156200002857600080fd5b50604051620053af380380620053af83398181016040528101906200004e9190620007f2565b81816040518060400160405280601381526020017f4275646469652074686520506c617479707573000000000000000000000000008152506040518060400160405280600481526020017f42554444000000000000000000000000000000000000000000000000000000008152508160009080519060200190620000d49291906200053a565b508060019080519060200190620000ed9291906200053a565b505050805182511462000137576040517f08c379a00000000000000000000000000000000000000000000000000000000081526004016200012e90620009df565b60405180910390fd5b60008251116200017e576040517f08c379a0000000000000000000000000000000000000000000000000000000008152600401620001759062000a23565b60405180910390fd5b60005b8251811015620001ed57620001d7838281518110620001a557620001a462000d1e565b5b6020026020010151838381518110620001c357620001c262000d1e565b5b60200260200101516200023260201b60201c565b8080620001e49062000c72565b91505062000181565b50505062000210620002046200046c60201b60201c565b6200047460201b60201c565b8260129080519060200190620002289291906200053a565b5050505062000f19565b600073ffffffffffffffffffffffffffffffffffffffff168273ffffffffffffffffffffffffffffffffffffffff161415620002a5576040517f08c379a00000000000000000000000000000000000000000000000000000000081526004016200029c90620009bd565b60405180910390fd5b60008111620002eb576040517f08c379a0000000000000000000000000000000000000000000000000000000008152600401620002e29062000a45565b60405180910390fd5b6000600960008473ffffffffffffffffffffffffffffffffffffffff1673ffffffffffffffffffffffffffffffffffffffff168152602001908152602001600020541462000370576040517f08c379a0000000000000000000000000000000000000000000000000000000008152600401620003679062000a01565b60405180910390fd5b600b829080600181540180825580915050600190039060005260206000200160009091909190916101000a81548173ffffffffffffffffffffffffffffffffffffffff021916908373ffffffffffffffffffffffffffffffffffffffff16021790555080600960008473ffffffffffffffffffffffffffffffffffffffff1673ffffffffffffffffffffffffffffffffffffffff168152602001908152602001600020819055508060075462000427919062000b35565b6007819055507f40c340f65e17194d14ddddb073d3c9f888e3cb52b5aae0c6c7706b4fbc905fac82826040516200046092919062000990565b60405180910390a15050565b600033905090565b6000600e60009054906101000a900473ffffffffffffffffffffffffffffffffffffffff16905081600e60006101000a81548173ffffffffffffffffffffffffffffffffffffffff021916908373ffffffffffffffffffffffffffffffffffffffff1602179055508173ffffffffffffffffffffffffffffffffffffffff168173ffffffffffffffffffffffffffffffffffffffff167f8be0079c531659141344cd1fd0a4f28419497f9722a3daafe3b4186f6b6457e060405160405180910390a35050565b828054620005489062000c06565b90600052602060002090601f0160209004810192826200056c5760008555620005b8565b82601f106200058757805160ff1916838001178555620005b8565b82800160010185558215620005b8579182015b82811115620005b75782518255916020019190600101906200059a565b5b509050620005c79190620005cb565b5090565b5b80821115620005e6576000816000905550600101620005cc565b5090565b600062000601620005fb8462000a90565b62000a67565b9050808382526020820190508285602086028201111562000627576200062662000d81565b5b60005b858110156200065b57816200064088826200072b565b8452602084019350602083019250506001810190506200062a565b5050509392505050565b60006200067c620006768462000abf565b62000a67565b90508083825260208201905082856020860282011115620006a257620006a162000d81565b5b60005b85811015620006d65781620006bb8882620007db565b845260208401935060208301925050600181019050620006a5565b5050509392505050565b6000620006f7620006f18462000aee565b62000a67565b90508281526020810184848401111562000716576200071562000d86565b5b6200072384828562000bd0565b509392505050565b6000815190506200073c8162000ee5565b92915050565b600082601f8301126200075a576200075962000d7c565b5b81516200076c848260208601620005ea565b91505092915050565b600082601f8301126200078d576200078c62000d7c565b5b81516200079f84826020860162000665565b91505092915050565b600082601f830112620007c057620007bf62000d7c565b5b8151620007d2848260208601620006e0565b91505092915050565b600081519050620007ec8162000eff565b92915050565b6000806000606084860312156200080e576200080d62000d90565b5b600084015167ffffffffffffffff8111156200082f576200082e62000d8b565b5b6200083d86828701620007a8565b935050602084015167ffffffffffffffff81111562000861576200086062000d8b565b5b6200086f8682870162000742565b925050604084015167ffffffffffffffff81111562000893576200089262000d8b565b5b620008a18682870162000775565b9150509250925092565b620008b68162000b92565b82525050565b6000620008cb602c8362000b24565b9150620008d88262000da6565b604082019050919050565b6000620008f260328362000b24565b9150620008ff8262000df5565b604082019050919050565b600062000919602b8362000b24565b9150620009268262000e44565b604082019050919050565b600062000940601a8362000b24565b91506200094d8262000e93565b602082019050919050565b600062000967601d8362000b24565b9150620009748262000ebc565b602082019050919050565b6200098a8162000bc6565b82525050565b6000604082019050620009a76000830185620008ab565b620009b660208301846200097f565b9392505050565b60006020820190508181036000830152620009d881620008bc565b9050919050565b60006020820190508181036000830152620009fa81620008e3565b9050919050565b6000602082019050818103600083015262000a1c816200090a565b9050919050565b6000602082019050818103600083015262000a3e8162000931565b9050919050565b6000602082019050818103600083015262000a608162000958565b9050919050565b600062000a7362000a86565b905062000a81828262000c3c565b919050565b6000604051905090565b600067ffffffffffffffff82111562000aae5762000aad62000d4d565b5b602082029050602081019050919050565b600067ffffffffffffffff82111562000add5762000adc62000d4d565b5b602082029050602081019050919050565b600067ffffffffffffffff82111562000b0c5762000b0b62000d4d565b5b62000b178262000d95565b9050602081019050919050565b600082825260208201905092915050565b600062000b428262000bc6565b915062000b4f8362000bc6565b9250827fffffffffffffffffffffffffffffffffffffffffffffffffffffffffffffffff0382111562000b875762000b8662000cc0565b5b828201905092915050565b600062000b9f8262000ba6565b9050919050565b600073ffffffffffffffffffffffffffffffffffffffff82169050919050565b6000819050919050565b60005b8381101562000bf057808201518184015260208101905062000bd3565b8381111562000c00576000848401525b50505050565b6000600282049050600182168062000c1f57607f821691505b6020821081141562000c365762000c3562000cef565b5b50919050565b62000c478262000d95565b810181811067ffffffffffffffff8211171562000c695762000c6862000d4d565b5b80604052505050565b600062000c7f8262000bc6565b91507fffffffffffffffffffffffffffffffffffffffffffffffffffffffffffffffff82141562000cb55762000cb462000cc0565b5b600182019050919050565b7f4e487b7100000000000000000000000000000000000000000000000000000000600052601160045260246000fd5b7f4e487b7100000000000000000000000000000000000000000000000000000000600052602260045260246000fd5b7f4e487b7100000000000000000000000000000000000000000000000000000000600052603260045260246000fd5b7f4e487b7100000000000000000000000000000000000000000000000000000000600052604160045260246000fd5b600080fd5b600080fd5b600080fd5b600080fd5b600080fd5b6000601f19601f8301169050919050565b7f5061796d656e7453706c69747465723a206163636f756e74206973207468652060008201527f7a65726f20616464726573730000000000000000000000000000000000000000602082015250565b7f5061796d656e7453706c69747465723a2070617965657320616e64207368617260008201527f6573206c656e677468206d69736d617463680000000000000000000000000000602082015250565b7f5061796d656e7453706c69747465723a206163636f756e7420616c726561647960008201527f2068617320736861726573000000000000000000000000000000000000000000602082015250565b7f5061796d656e7453706c69747465723a206e6f20706179656573000000000000600082015250565b7f5061796d656e7453706c69747465723a20736861726573206172652030000000600082015250565b62000ef08162000b92565b811462000efc57600080fd5b50565b62000f0a8162000bc6565b811462000f1657600080fd5b50565b6144868062000f296000396000f3fe6080604052600436106101d15760003560e01c8063775a25e3116100f7578063a22cb46511610095578063d79779b211610064578063d79779b2146106e8578063e33b7de314610725578063e985e9c514610750578063f2fde38b1461078d57610218565b8063a22cb4651461061c578063b88d4fde14610645578063c87b56dd1461066e578063ce7c2ac2146106ab57610218565b806391b7f5ed116100d157806391b7f5ed1461056057806395d89b41146105895780639852595c146105b457806398d5fdca146105f157610218565b8063775a25e3146104cd5780638b83209b146104f85780638da5cb5b1461053557610218565b80632db115441161016f57806348b750441161013e57806348b75044146104135780636352211e1461043c57806370a0823114610479578063715018a6146104b657610218565b80632db11544146103665780633a98ef3914610382578063406072a9146103ad57806342842e0e146103ea57610218565b8063081812fc116101ab578063081812fc146102ae578063095ea7b3146102eb578063191655871461031457806323b872dd1461033d57610218565b806301ffc9a71461021d57806302fe53051461025a57806306fdde031461028357610218565b36610218577f6ef95f06320e7a25a04a175ca677b7052bdd97131872c2192525a629f51be7706101ff6107b6565b3460405161020e9291906134e5565b60405180910390a1005b600080fd5b34801561022957600080fd5b50610244600480360381019061023f9190612d73565b6107be565b604051610251919061350e565b60405180910390f35b34801561026657600080fd5b50610281600480360381019061027c9190612e3a565b6108a0565b005b34801561028f57600080fd5b50610298610936565b6040516102a59190613529565b60405180910390f35b3480156102ba57600080fd5b506102d560048036038101906102d09190612e83565b6109c8565b6040516102e29190613455565b60405180910390f35b3480156102f757600080fd5b50610312600480360381019061030d9190612d06565b610a4d565b005b34801561032057600080fd5b5061033b60048036038101906103369190612b83565b610b65565b005b34801561034957600080fd5b50610364600480360381019061035f9190612bf0565b610d10565b005b610380600480360381019061037b9190612e83565b610d70565b005b34801561038e57600080fd5b50610397610e4c565b6040516103a4919061384b565b60405180910390f35b3480156103b957600080fd5b506103d460048036038101906103cf9190612dfa565b610e56565b6040516103e1919061384b565b60405180910390f35b3480156103f657600080fd5b50610411600480360381019061040c9190612bf0565b610edd565b005b34801561041f57600080fd5b5061043a60048036038101906104359190612dfa565b610efd565b005b34801561044857600080fd5b50610463600480360381019061045e9190612e83565b6111c5565b6040516104709190613455565b60405180910390f35b34801561048557600080fd5b506104a0600480360381019061049b9190612b56565b611277565b6040516104ad919061384b565b60405180910390f35b3480156104c257600080fd5b506104cb61132f565b005b3480156104d957600080fd5b506104e26113b7565b6040516104ef919061384b565b60405180910390f35b34801561050457600080fd5b5061051f600480360381019061051a9190612e83565b6113c1565b60405161052c9190613455565b60405180910390f35b34801561054157600080fd5b5061054a611409565b6040516105579190613455565b60405180910390f35b34801561056c57600080fd5b5061058760048036038101906105829190612e83565b611433565b005b34801561059557600080fd5b5061059e6114b9565b6040516105ab9190613529565b60405180910390f35b3480156105c057600080fd5b506105db60048036038101906105d69190612b56565b61154b565b6040516105e8919061384b565b60405180910390f35b3480156105fd57600080fd5b50610606611594565b604051610613919061384b565b60405180910390f35b34801561062857600080fd5b50610643600480360381019061063e9190612cc6565b61159e565b005b34801561065157600080fd5b5061066c60048036038101906106679190612c43565b6115b4565b005b34801561067a57600080fd5b5061069560048036038101906106909190612e83565b611616565b6040516106a29190613529565b60405180910390f35b3480156106b757600080fd5b506106d260048036038101906106cd9190612b56565b61164a565b6040516106df919061384b565b60405180910390f35b3480156106f457600080fd5b5061070f600480360381019061070a9190612dcd565b611693565b60405161071c919061384b565b60405180910390f35b34801561073157600080fd5b5061073a6116dc565b604051610747919061384b565b60405180910390f35b34801561075c57600080fd5b5061077760048036038101906107729190612bb0565b6116e6565b604051610784919061350e565b60405180910390f35b34801561079957600080fd5b506107b460048036038101906107af9190612b56565b61177a565b005b600033905090565b60007f80ac58cd000000000000000000000000000000000000000000000000000000007bffffffffffffffffffffffffffffffffffffffffffffffffffffffff1916827bffffffffffffffffffffffffffffffffffffffffffffffffffffffff1916148061088957507f5b5e139f000000000000000000000000000000000000000000000000000000007bffffffffffffffffffffffffffffffffffffffffffffffffffffffff1916827bffffffffffffffffffffffffffffffffffffffffffffffffffffffff1916145b80610899575061089882611872565b5b9050919050565b6108a86107b6565b73ffffffffffffffffffffffffffffffffffffffff166108c6611409565b73ffffffffffffffffffffffffffffffffffffffff161461091c576040517f08c379a00000000000000000000000000000000000000000000000000000000081526004016109139061378b565b60405180910390fd5b8060129080519060200190610932929190612916565b5050565b60606000805461094590613b75565b80601f016020809104026020016040519081016040528092919081815260200182805461097190613b75565b80156109be5780601f10610993576101008083540402835291602001916109be565b820191906000526020600020905b8154815290600101906020018083116109a157829003601f168201915b5050505050905090565b60006109d3826118dc565b610a12576040517f08c379a0000000000000000000000000000000000000000000000000000000008152600401610a099061376b565b60405180910390fd5b6004600083815260200190815260200160002060009054906101000a900473ffffffffffffffffffffffffffffffffffffffff169050919050565b6000610a58826111c5565b90508073ffffffffffffffffffffffffffffffffffffffff168373ffffffffffffffffffffffffffffffffffffffff161415610ac9576040517f08c379a0000000000000000000000000000000000000000000000000000000008152600401610ac0906137ab565b60405180910390fd5b8073ffffffffffffffffffffffffffffffffffffffff16610ae86107b6565b73ffffffffffffffffffffffffffffffffffffffff161480610b175750610b1681610b116107b6565b6116e6565b5b610b56576040517f08c379a0000000000000000000000000000000000000000000000000000000008152600401610b4d906136cb565b60405180910390fd5b610b608383611948565b505050565b6000600960008373ffffffffffffffffffffffffffffffffffffffff1673ffffffffffffffffffffffffffffffffffffffff1681526020019081526020016000205411610be7576040517f08c379a0000000000000000000000000000000000000000000000000000000008152600401610bde906135cb565b60405180910390fd5b6000610bf16116dc565b47610bfc9190613950565b90506000610c138383610c0e8661154b565b611a01565b90506000811415610c59576040517f08c379a0000000000000000000000000000000000000000000000000000000008152600401610c50906136ab565b60405180910390fd5b80600a60008573ffffffffffffffffffffffffffffffffffffffff1673ffffffffffffffffffffffffffffffffffffffff1681526020019081526020016000206000828254610ca89190613950565b925050819055508060086000828254610cc19190613950565b92505081905550610cd28382611a6f565b7fdf20fd1e76bc69d672e4814fafb2c449bba3a5369d8359adf9e05e6fde87b0568382604051610d03929190613470565b60405180910390a1505050565b610d21610d1b6107b6565b82611b63565b610d60576040517f08c379a0000000000000000000000000000000000000000000000000000000008152600401610d57906137cb565b60405180910390fd5b610d6b838383611c41565b505050565b80601154610d7e91906139d7565b341015610dc0576040517f08c379a0000000000000000000000000000000000000000000000000000000008152600401610db79061372b565b60405180910390fd5b600f5481601054610dd19190613950565b1115610e12576040517f08c379a0000000000000000000000000000000000000000000000000000000008152600401610e099061380b565b60405180910390fd5b610e2a336001601054610e259190613950565b611ea8565b600160106000828254610e3d9190613950565b92505081905560108190555050565b6000600754905090565b6000600d60008473ffffffffffffffffffffffffffffffffffffffff1673ffffffffffffffffffffffffffffffffffffffff16815260200190815260200160002060008373ffffffffffffffffffffffffffffffffffffffff1673ffffffffffffffffffffffffffffffffffffffff16815260200190815260200160002054905092915050565b610ef8838383604051806020016040528060008152506115b4565b505050565b6000600960008373ffffffffffffffffffffffffffffffffffffffff1673ffffffffffffffffffffffffffffffffffffffff1681526020019081526020016000205411610f7f576040517f08c379a0000000000000000000000000000000000000000000000000000000008152600401610f76906135cb565b60405180910390fd5b6000610f8a83611693565b8373ffffffffffffffffffffffffffffffffffffffff166370a08231306040518263ffffffff1660e01b8152600401610fc39190613455565b60206040518083038186803b158015610fdb57600080fd5b505afa158015610fef573d6000803e3d6000fd5b505050506040513d601f19601f820116820180604052508101906110139190612eb0565b61101d9190613950565b9050600061103583836110308787610e56565b611a01565b9050600081141561107b576040517f08c379a0000000000000000000000000000000000000000000000000000000008152600401611072906136ab565b60405180910390fd5b80600d60008673ffffffffffffffffffffffffffffffffffffffff1673ffffffffffffffffffffffffffffffffffffffff16815260200190815260200160002060008573ffffffffffffffffffffffffffffffffffffffff1673ffffffffffffffffffffffffffffffffffffffff16815260200190815260200160002060008282546111079190613950565b9250508190555080600c60008673ffffffffffffffffffffffffffffffffffffffff1673ffffffffffffffffffffffffffffffffffffffff168152602001908152602001600020600082825461115d9190613950565b9250508190555061116f848483612082565b8373ffffffffffffffffffffffffffffffffffffffff167f3be5b7a71e84ed12875d241991c70855ac5817d847039e17a9d895c1ceb0f18a84836040516111b79291906134e5565b60405180910390a250505050565b6000806002600084815260200190815260200160002060009054906101000a900473ffffffffffffffffffffffffffffffffffffffff169050600073ffffffffffffffffffffffffffffffffffffffff168173ffffffffffffffffffffffffffffffffffffffff16141561126e576040517f08c379a00000000000000000000000000000000000000000000000000000000081526004016112659061370b565b60405180910390fd5b80915050919050565b60008073ffffffffffffffffffffffffffffffffffffffff168273ffffffffffffffffffffffffffffffffffffffff1614156112e8576040517f08c379a00000000000000000000000000000000000000000000000000000000081526004016112df906136eb565b60405180910390fd5b600360008373ffffffffffffffffffffffffffffffffffffffff1673ffffffffffffffffffffffffffffffffffffffff168152602001908152602001600020549050919050565b6113376107b6565b73ffffffffffffffffffffffffffffffffffffffff16611355611409565b73ffffffffffffffffffffffffffffffffffffffff16146113ab576040517f08c379a00000000000000000000000000000000000000000000000000000000081526004016113a29061378b565b60405180910390fd5b6113b56000612108565b565b6000601054905090565b6000600b82815481106113d7576113d6613cdf565b5b9060005260206000200160009054906101000a900473ffffffffffffffffffffffffffffffffffffffff169050919050565b6000600e60009054906101000a900473ffffffffffffffffffffffffffffffffffffffff16905090565b61143b6107b6565b73ffffffffffffffffffffffffffffffffffffffff16611459611409565b73ffffffffffffffffffffffffffffffffffffffff16146114af576040517f08c379a00000000000000000000000000000000000000000000000000000000081526004016114a69061378b565b60405180910390fd5b8060118190555050565b6060600180546114c890613b75565b80601f01602080910402602001604051908101604052809291908181526020018280546114f490613b75565b80156115415780601f1061151657610100808354040283529160200191611541565b820191906000526020600020905b81548152906001019060200180831161152457829003601f168201915b5050505050905090565b6000600a60008373ffffffffffffffffffffffffffffffffffffffff1673ffffffffffffffffffffffffffffffffffffffff168152602001908152602001600020549050919050565b6000601154905090565b6115b06115a96107b6565b83836121ce565b5050565b6115c56115bf6107b6565b83611b63565b611604576040517f08c379a00000000000000000000000000000000000000000000000000000000081526004016115fb906137cb565b60405180910390fd5b6116108484848461233b565b50505050565b6060601261162383612397565b604051602001611634929190613411565b6040516020818303038152906040529050919050565b6000600960008373ffffffffffffffffffffffffffffffffffffffff1673ffffffffffffffffffffffffffffffffffffffff168152602001908152602001600020549050919050565b6000600c60008373ffffffffffffffffffffffffffffffffffffffff1673ffffffffffffffffffffffffffffffffffffffff168152602001908152602001600020549050919050565b6000600854905090565b6000600560008473ffffffffffffffffffffffffffffffffffffffff1673ffffffffffffffffffffffffffffffffffffffff16815260200190815260200160002060008373ffffffffffffffffffffffffffffffffffffffff1673ffffffffffffffffffffffffffffffffffffffff16815260200190815260200160002060009054906101000a900460ff16905092915050565b6117826107b6565b73ffffffffffffffffffffffffffffffffffffffff166117a0611409565b73ffffffffffffffffffffffffffffffffffffffff16146117f6576040517f08c379a00000000000000000000000000000000000000000000000000000000081526004016117ed9061378b565b60405180910390fd5b600073ffffffffffffffffffffffffffffffffffffffff168173ffffffffffffffffffffffffffffffffffffffff161415611866576040517f08c379a000000000000000000000000000000000000000000000000000000000815260040161185d9061356b565b60405180910390fd5b61186f81612108565b50565b60007f01ffc9a7000000000000000000000000000000000000000000000000000000007bffffffffffffffffffffffffffffffffffffffffffffffffffffffff1916827bffffffffffffffffffffffffffffffffffffffffffffffffffffffff1916149050919050565b60008073ffffffffffffffffffffffffffffffffffffffff166002600084815260200190815260200160002060009054906101000a900473ffffffffffffffffffffffffffffffffffffffff1673ffffffffffffffffffffffffffffffffffffffff1614159050919050565b816004600083815260200190815260200160002060006101000a81548173ffffffffffffffffffffffffffffffffffffffff021916908373ffffffffffffffffffffffffffffffffffffffff160217905550808273ffffffffffffffffffffffffffffffffffffffff166119bb836111c5565b73ffffffffffffffffffffffffffffffffffffffff167f8c5be1e5ebec7d5bd14f71427d1e84f3dd0314c0f7b2291e5b200ac8c7c3b92560405160405180910390a45050565b600081600754600960008773ffffffffffffffffffffffffffffffffffffffff1673ffffffffffffffffffffffffffffffffffffffff1681526020019081526020016000205485611a5291906139d7565b611a5c91906139a6565b611a669190613a31565b90509392505050565b80471015611ab2576040517f08c379a0000000000000000000000000000000000000000000000000000000008152600401611aa99061364b565b60405180910390fd5b60008273ffffffffffffffffffffffffffffffffffffffff1682604051611ad890613440565b60006040518083038185875af1925050503d8060008114611b15576040519150601f19603f3d011682016040523d82523d6000602084013e611b1a565b606091505b5050905080611b5e576040517f08c379a0000000000000000000000000000000000000000000000000000000008152600401611b559061362b565b60405180910390fd5b505050565b6000611b6e826118dc565b611bad576040517f08c379a0000000000000000000000000000000000000000000000000000000008152600401611ba49061368b565b60405180910390fd5b6000611bb8836111c5565b90508073ffffffffffffffffffffffffffffffffffffffff168473ffffffffffffffffffffffffffffffffffffffff161480611c2757508373ffffffffffffffffffffffffffffffffffffffff16611c0f846109c8565b73ffffffffffffffffffffffffffffffffffffffff16145b80611c385750611c3781856116e6565b5b91505092915050565b8273ffffffffffffffffffffffffffffffffffffffff16611c61826111c5565b73ffffffffffffffffffffffffffffffffffffffff1614611cb7576040517f08c379a0000000000000000000000000000000000000000000000000000000008152600401611cae9061358b565b60405180910390fd5b600073ffffffffffffffffffffffffffffffffffffffff168273ffffffffffffffffffffffffffffffffffffffff161415611d27576040517f08c379a0000000000000000000000000000000000000000000000000000000008152600401611d1e906135eb565b60405180910390fd5b611d328383836124f8565b611d3d600082611948565b6001600360008573ffffffffffffffffffffffffffffffffffffffff1673ffffffffffffffffffffffffffffffffffffffff1681526020019081526020016000206000828254611d8d9190613a31565b925050819055506001600360008473ffffffffffffffffffffffffffffffffffffffff1673ffffffffffffffffffffffffffffffffffffffff1681526020019081526020016000206000828254611de49190613950565b92505081905550816002600083815260200190815260200160002060006101000a81548173ffffffffffffffffffffffffffffffffffffffff021916908373ffffffffffffffffffffffffffffffffffffffff160217905550808273ffffffffffffffffffffffffffffffffffffffff168473ffffffffffffffffffffffffffffffffffffffff167fddf252ad1be2c89b69c2b068fc378daa952ba7f163c4a11628f55a4df523b3ef60405160405180910390a4611ea38383836124fd565b505050565b600073ffffffffffffffffffffffffffffffffffffffff168273ffffffffffffffffffffffffffffffffffffffff161415611f18576040517f08c379a0000000000000000000000000000000000000000000000000000000008152600401611f0f9061374b565b60405180910390fd5b611f21816118dc565b15611f61576040517f08c379a0000000000000000000000000000000000000000000000000000000008152600401611f58906135ab565b60405180910390fd5b611f6d600083836124f8565b6001600360008473ffffffffffffffffffffffffffffffffffffffff1673ffffffffffffffffffffffffffffffffffffffff1681526020019081526020016000206000828254611fbd9190613950565b92505081905550816002600083815260200190815260200160002060006101000a81548173ffffffffffffffffffffffffffffffffffffffff021916908373ffffffffffffffffffffffffffffffffffffffff160217905550808273ffffffffffffffffffffffffffffffffffffffff16600073ffffffffffffffffffffffffffffffffffffffff167fddf252ad1be2c89b69c2b068fc378daa952ba7f163c4a11628f55a4df523b3ef60405160405180910390a461207e600083836124fd565b5050565b6121038363a9059cbb60e01b84846040516024016120a19291906134e5565b604051602081830303815290604052907bffffffffffffffffffffffffffffffffffffffffffffffffffffffff19166020820180517bffffffffffffffffffffffffffffffffffffffffffffffffffffffff8381831617835250505050612502565b505050565b6000600e60009054906101000a900473ffffffffffffffffffffffffffffffffffffffff16905081600e60006101000a81548173ffffffffffffffffffffffffffffffffffffffff021916908373ffffffffffffffffffffffffffffffffffffffff1602179055508173ffffffffffffffffffffffffffffffffffffffff168173ffffffffffffffffffffffffffffffffffffffff167f8be0079c531659141344cd1fd0a4f28419497f9722a3daafe3b4186f6b6457e060405160405180910390a35050565b8173ffffffffffffffffffffffffffffffffffffffff168373ffffffffffffffffffffffffffffffffffffffff16141561223d576040517f08c379a00000000000000000000000000000000000000000000000000000000081526004016122349061360b565b60405180910390fd5b80600560008573ffffffffffffffffffffffffffffffffffffffff1673ffffffffffffffffffffffffffffffffffffffff16815260200190815260200160002060008473ffffffffffffffffffffffffffffffffffffffff1673ffffffffffffffffffffffffffffffffffffffff16815260200190815260200160002060006101000a81548160ff0219169083151502179055508173ffffffffffffffffffffffffffffffffffffffff168373ffffffffffffffffffffffffffffffffffffffff167f17307eab39ab6107e8899845ad3d59bd9653f200f220920489ca2b5937696c318360405161232e919061350e565b60405180910390a3505050565b612346848484611c41565b612352848484846125c9565b612391576040517f08c379a00000000000000000000000000000000000000000000000000000000081526004016123889061354b565b60405180910390fd5b50505050565b606060008214156123df576040518060400160405280600181526020017f300000000000000000000000000000000000000000000000000000000000000081525090506124f3565b600082905060005b600082146124115780806123fa90613bd8565b915050600a8261240a91906139a6565b91506123e7565b60008167ffffffffffffffff81111561242d5761242c613d0e565b5b6040519080825280601f01601f19166020018201604052801561245f5781602001600182028036833780820191505090505b5090505b600085146124ec576001826124789190613a31565b9150600a856124879190613c21565b60306124939190613950565b60f81b8183815181106124a9576124a8613cdf565b5b60200101907effffffffffffffffffffffffffffffffffffffffffffffffffffffffffffff1916908160001a905350600a856124e591906139a6565b9450612463565b8093505050505b919050565b505050565b505050565b6000612564826040518060400160405280602081526020017f5361666545524332303a206c6f772d6c6576656c2063616c6c206661696c65648152508573ffffffffffffffffffffffffffffffffffffffff166127609092919063ffffffff16565b90506000815111156125c457808060200190518101906125849190612d46565b6125c3576040517f08c379a00000000000000000000000000000000000000000000000000000000081526004016125ba9061382b565b60405180910390fd5b5b505050565b60006125ea8473ffffffffffffffffffffffffffffffffffffffff16612778565b15612753578373ffffffffffffffffffffffffffffffffffffffff1663150b7a026126136107b6565b8786866040518563ffffffff1660e01b81526004016126359493929190613499565b602060405180830381600087803b15801561264f57600080fd5b505af192505050801561268057506040513d601f19601f8201168201806040525081019061267d9190612da0565b60015b612703573d80600081146126b0576040519150601f19603f3d011682016040523d82523d6000602084013e6126b5565b606091505b506000815114156126fb576040517f08c379a00000000000000000000000000000000000000000000000000000000081526004016126f29061354b565b60405180910390fd5b805181602001fd5b63150b7a0260e01b7bffffffffffffffffffffffffffffffffffffffffffffffffffffffff1916817bffffffffffffffffffffffffffffffffffffffffffffffffffffffff191614915050612758565b600190505b949350505050565b606061276f848460008561279b565b90509392505050565b6000808273ffffffffffffffffffffffffffffffffffffffff163b119050919050565b6060824710156127e0576040517f08c379a00000000000000000000000000000000000000000000000000000000081526004016127d79061366b565b60405180910390fd5b6127e985612778565b612828576040517f08c379a000000000000000000000000000000000000000000000000000000000815260040161281f906137eb565b60405180910390fd5b6000808673ffffffffffffffffffffffffffffffffffffffff16858760405161285191906133fa565b60006040518083038185875af1925050503d806000811461288e576040519150601f19603f3d011682016040523d82523d6000602084013e612893565b606091505b50915091506128a38282866128af565b92505050949350505050565b606083156128bf5782905061290f565b6000835111156128d25782518084602001fd5b816040517f08c379a00000000000000000000000000000000000000000000000000000000081526004016129069190613529565b60405180910390fd5b9392505050565b82805461292290613b75565b90600052602060002090601f016020900481019282612944576000855561298b565b82601f1061295d57805160ff191683800117855561298b565b8280016001018555821561298b579182015b8281111561298a57825182559160200191906001019061296f565b5b509050612998919061299c565b5090565b5b808211156129b557600081600090555060010161299d565b5090565b60006129cc6129c78461388b565b613866565b9050828152602081018484840111156129e8576129e7613d42565b5b6129f3848285613b33565b509392505050565b6000612a0e612a09846138bc565b613866565b905082815260208101848484011115612a2a57612a29613d42565b5b612a35848285613b33565b509392505050565b600081359050612a4c816143c6565b92915050565b600081359050612a61816143dd565b92915050565b600081359050612a76816143f4565b92915050565b600081519050612a8b816143f4565b92915050565b600081359050612aa08161440b565b92915050565b600081519050612ab58161440b565b92915050565b600082601f830112612ad057612acf613d3d565b5b8135612ae08482602086016129b9565b91505092915050565b600081359050612af881614422565b92915050565b600082601f830112612b1357612b12613d3d565b5b8135612b238482602086016129fb565b91505092915050565b600081359050612b3b81614439565b92915050565b600081519050612b5081614439565b92915050565b600060208284031215612b6c57612b6b613d4c565b5b6000612b7a84828501612a3d565b91505092915050565b600060208284031215612b9957612b98613d4c565b5b6000612ba784828501612a52565b91505092915050565b60008060408385031215612bc757612bc6613d4c565b5b6000612bd585828601612a3d565b9250506020612be685828601612a3d565b9150509250929050565b600080600060608486031215612c0957612c08613d4c565b5b6000612c1786828701612a3d565b9350506020612c2886828701612a3d565b9250506040612c3986828701612b2c565b9150509250925092565b60008060008060808587031215612c5d57612c5c613d4c565b5b6000612c6b87828801612a3d565b9450506020612c7c87828801612a3d565b9350506040612c8d87828801612b2c565b925050606085013567ffffffffffffffff811115612cae57612cad613d47565b5b612cba87828801612abb565b91505092959194509250565b60008060408385031215612cdd57612cdc613d4c565b5b6000612ceb85828601612a3d565b9250506020612cfc85828601612a67565b9150509250929050565b60008060408385031215612d1d57612d1c613d4c565b5b6000612d2b85828601612a3d565b9250506020612d3c85828601612b2c565b9150509250929050565b600060208284031215612d5c57612d5b613d4c565b5b6000612d6a84828501612a7c565b91505092915050565b600060208284031215612d8957612d88613d4c565b5b6000612d9784828501612a91565b91505092915050565b600060208284031215612db657612db5613d4c565b5b6000612dc484828501612aa6565b91505092915050565b600060208284031215612de357612de2613d4c565b5b6000612df184828501612ae9565b91505092915050565b60008060408385031215612e1157612e10613d4c565b5b6000612e1f85828601612ae9565b9250506020612e3085828601612a3d565b9150509250929050565b600060208284031215612e5057612e4f613d4c565b5b600082013567ffffffffffffffff811115612e6e57612e6d613d47565b5b612e7a84828501612afe565b91505092915050565b600060208284031215612e9957612e98613d4c565b5b6000612ea784828501612b2c565b91505092915050565b600060208284031215612ec657612ec5613d4c565b5b6000612ed484828501612b41565b91505092915050565b612ee681613afd565b82525050565b612ef581613a65565b82525050565b612f0481613a89565b82525050565b6000612f1582613902565b612f1f8185613918565b9350612f2f818560208601613b42565b612f3881613d51565b840191505092915050565b6000612f4e82613902565b612f588185613929565b9350612f68818560208601613b42565b80840191505092915050565b6000612f7f8261390d565b612f898185613934565b9350612f99818560208601613b42565b612fa281613d51565b840191505092915050565b6000612fb88261390d565b612fc28185613945565b9350612fd2818560208601613b42565b80840191505092915050565b60008154612feb81613b75565b612ff58186613945565b94506001821660008114613010576001811461302157613054565b60ff19831686528186019350613054565b61302a856138ed565b60005b8381101561304c5781548189015260018201915060208101905061302d565b838801955050505b50505092915050565b600061306a603283613934565b915061307582613d62565b604082019050919050565b600061308d602683613934565b915061309882613db1565b604082019050919050565b60006130b0602583613934565b91506130bb82613e00565b604082019050919050565b60006130d3601c83613934565b91506130de82613e4f565b602082019050919050565b60006130f6602683613934565b915061310182613e78565b604082019050919050565b6000613119602483613934565b915061312482613ec7565b604082019050919050565b600061313c601983613934565b915061314782613f16565b602082019050919050565b600061315f603a83613934565b915061316a82613f3f565b604082019050919050565b6000613182601d83613934565b915061318d82613f8e565b602082019050919050565b60006131a5602683613934565b91506131b082613fb7565b604082019050919050565b60006131c8602c83613934565b91506131d382614006565b604082019050919050565b60006131eb602b83613934565b91506131f682614055565b604082019050919050565b600061320e603883613934565b9150613219826140a4565b604082019050919050565b6000613231602a83613934565b915061323c826140f3565b604082019050919050565b6000613254602983613934565b915061325f82614142565b604082019050919050565b6000613277601983613934565b915061328282614191565b602082019050919050565b600061329a602083613934565b91506132a5826141ba565b602082019050919050565b60006132bd602c83613934565b91506132c8826141e3565b604082019050919050565b60006132e0600583613945565b91506132eb82614232565b600582019050919050565b6000613303602083613934565b915061330e8261425b565b602082019050919050565b6000613326602183613934565b915061333182614284565b604082019050919050565b6000613349600083613929565b9150613354826142d3565b600082019050919050565b600061336c603183613934565b9150613377826142d6565b604082019050919050565b600061338f601d83613934565b915061339a82614325565b602082019050919050565b60006133b2601d83613934565b91506133bd8261434e565b602082019050919050565b60006133d5602a83613934565b91506133e082614377565b604082019050919050565b6133f481613af3565b82525050565b60006134068284612f43565b915081905092915050565b600061341d8285612fde565b91506134298284612fad565b9150613434826132d3565b91508190509392505050565b600061344b8261333c565b9150819050919050565b600060208201905061346a6000830184612eec565b92915050565b60006040820190506134856000830185612edd565b61349260208301846133eb565b9392505050565b60006080820190506134ae6000830187612eec565b6134bb6020830186612eec565b6134c860408301856133eb565b81810360608301526134da8184612f0a565b905095945050505050565b60006040820190506134fa6000830185612eec565b61350760208301846133eb565b9392505050565b60006020820190506135236000830184612efb565b92915050565b600060208201905081810360008301526135438184612f74565b905092915050565b600060208201905081810360008301526135648161305d565b9050919050565b6000602082019050818103600083015261358481613080565b9050919050565b600060208201905081810360008301526135a4816130a3565b9050919050565b600060208201905081810360008301526135c4816130c6565b9050919050565b600060208201905081810360008301526135e4816130e9565b9050919050565b600060208201905081810360008301526136048161310c565b9050919050565b600060208201905081810360008301526136248161312f565b9050919050565b6000602082019050818103600083015261364481613152565b9050919050565b6000602082019050818103600083015261366481613175565b9050919050565b6000602082019050818103600083015261368481613198565b9050919050565b600060208201905081810360008301526136a4816131bb565b9050919050565b600060208201905081810360008301526136c4816131de565b9050919050565b600060208201905081810360008301526136e481613201565b9050919050565b6000602082019050818103600083015261370481613224565b9050919050565b6000602082019050818103600083015261372481613247565b9050919050565b600060208201905081810360008301526137448161326a565b9050919050565b600060208201905081810360008301526137648161328d565b9050919050565b60006020820190508181036000830152613784816132b0565b9050919050565b600060208201905081810360008301526137a4816132f6565b9050919050565b600060208201905081810360008301526137c481613319565b9050919050565b600060208201905081810360008301526137e48161335f565b9050919050565b6000602082019050818103600083015261380481613382565b9050919050565b60006020820190508181036000830152613824816133a5565b9050919050565b60006020820190508181036000830152613844816133c8565b9050919050565b600060208201905061386060008301846133eb565b92915050565b6000613870613881565b905061387c8282613ba7565b919050565b6000604051905090565b600067ffffffffffffffff8211156138a6576138a5613d0e565b5b6138af82613d51565b9050602081019050919050565b600067ffffffffffffffff8211156138d7576138d6613d0e565b5b6138e082613d51565b9050602081019050919050565b60008190508160005260206000209050919050565b600081519050919050565b600081519050919050565b600082825260208201905092915050565b600081905092915050565b600082825260208201905092915050565b600081905092915050565b600061395b82613af3565b915061396683613af3565b9250827fffffffffffffffffffffffffffffffffffffffffffffffffffffffffffffffff0382111561399b5761399a613c52565b5b828201905092915050565b60006139b182613af3565b91506139bc83613af3565b9250826139cc576139cb613c81565b5b828204905092915050565b60006139e282613af3565b91506139ed83613af3565b9250817fffffffffffffffffffffffffffffffffffffffffffffffffffffffffffffffff0483118215151615613a2657613a25613c52565b5b828202905092915050565b6000613a3c82613af3565b9150613a4783613af3565b925082821015613a5a57613a59613c52565b5b828203905092915050565b6000613a7082613ad3565b9050919050565b6000613a8282613ad3565b9050919050565b60008115159050919050565b60007fffffffff0000000000000000000000000000000000000000000000000000000082169050919050565b6000613acc82613a65565b9050919050565b600073ffffffffffffffffffffffffffffffffffffffff82169050919050565b6000819050919050565b6000613b0882613b0f565b9050919050565b6000613b1a82613b21565b9050919050565b6000613b2c82613ad3565b9050919050565b82818337600083830152505050565b60005b83811015613b60578082015181840152602081019050613b45565b83811115613b6f576000848401525b50505050565b60006002820490506001821680613b8d57607f821691505b60208210811415613ba157613ba0613cb0565b5b50919050565b613bb082613d51565b810181811067ffffffffffffffff82111715613bcf57613bce613d0e565b5b80604052505050565b6000613be382613af3565b91507fffffffffffffffffffffffffffffffffffffffffffffffffffffffffffffffff821415613c1657613c15613c52565b5b600182019050919050565b6000613c2c82613af3565b9150613c3783613af3565b925082613c4757613c46613c81565b5b828206905092915050565b7f4e487b7100000000000000000000000000000000000000000000000000000000600052601160045260246000fd5b7f4e487b7100000000000000000000000000000000000000000000000000000000600052601260045260246000fd5b7f4e487b7100000000000000000000000000000000000000000000000000000000600052602260045260246000fd5b7f4e487b7100000000000000000000000000000000000000000000000000000000600052603260045260246000fd5b7f4e487b7100000000000000000000000000000000000000000000000000000000600052604160045260246000fd5b600080fd5b600080fd5b600080fd5b600080fd5b6000601f19601f8301169050919050565b7f4552433732313a207472616e7366657220746f206e6f6e20455243373231526560008201527f63656976657220696d706c656d656e7465720000000000000000000000000000602082015250565b7f4f776e61626c653a206e6577206f776e657220697320746865207a65726f206160008201527f6464726573730000000000000000000000000000000000000000000000000000602082015250565b7f4552433732313a207472616e736665722066726f6d20696e636f72726563742060008201527f6f776e6572000000000000000000000000000000000000000000000000000000602082015250565b7f4552433732313a20746f6b656e20616c7265616479206d696e74656400000000600082015250565b7f5061796d656e7453706c69747465723a206163636f756e7420686173206e6f2060008201527f7368617265730000000000000000000000000000000000000000000000000000602082015250565b7f4552433732313a207472616e7366657220746f20746865207a65726f2061646460008201527f7265737300000000000000000000000000000000000000000000000000000000602082015250565b7f4552433732313a20617070726f766520746f2063616c6c657200000000000000600082015250565b7f416464726573733a20756e61626c6520746f2073656e642076616c75652c207260008201527f6563697069656e74206d61792068617665207265766572746564000000000000602082015250565b7f416464726573733a20696e73756666696369656e742062616c616e6365000000600082015250565b7f416464726573733a20696e73756666696369656e742062616c616e636520666f60008201527f722063616c6c0000000000000000000000000000000000000000000000000000602082015250565b7f4552433732313a206f70657261746f7220717565727920666f72206e6f6e657860008201527f697374656e7420746f6b656e0000000000000000000000000000000000000000602082015250565b7f5061796d656e7453706c69747465723a206163636f756e74206973206e6f742060008201527f647565207061796d656e74000000000000000000000000000000000000000000602082015250565b7f4552433732313a20617070726f76652063616c6c6572206973206e6f74206f7760008201527f6e6572206e6f7220617070726f76656420666f7220616c6c0000000000000000602082015250565b7f4552433732313a2062616c616e636520717565727920666f7220746865207a6560008201527f726f206164647265737300000000000000000000000000000000000000000000602082015250565b7f4552433732313a206f776e657220717565727920666f72206e6f6e657869737460008201527f656e7420746f6b656e0000000000000000000000000000000000000000000000602082015250565b7f4e6f7420656e6f756768204d6174696320746f206d696e742e00000000000000600082015250565b7f4552433732313a206d696e7420746f20746865207a65726f2061646472657373600082015250565b7f4552433732313a20617070726f76656420717565727920666f72206e6f6e657860008201527f697374656e7420746f6b656e0000000000000000000000000000000000000000602082015250565b7f2e6a736f6e000000000000000000000000000000000000000000000000000000600082015250565b7f4f776e61626c653a2063616c6c6572206973206e6f7420746865206f776e6572600082015250565b7f4552433732313a20617070726f76616c20746f2063757272656e74206f776e6560008201527f7200000000000000000000000000000000000000000000000000000000000000602082015250565b50565b7f4552433732313a207472616e736665722063616c6c6572206973206e6f74206f60008201527f776e6572206e6f7220617070726f766564000000000000000000000000000000602082015250565b7f416464726573733a2063616c6c20746f206e6f6e2d636f6e7472616374000000600082015250565b7f43616e2774206d696e642074686174206d616e7920427564646965732e000000600082015250565b7f5361666545524332303a204552433230206f7065726174696f6e20646964206e60008201527f6f74207375636365656400000000000000000000000000000000000000000000602082015250565b6143cf81613a65565b81146143da57600080fd5b50565b6143e681613a77565b81146143f157600080fd5b50565b6143fd81613a89565b811461440857600080fd5b50565b61441481613a95565b811461441f57600080fd5b50565b61442b81613ac1565b811461443657600080fd5b50565b61444281613af3565b811461444d57600080fd5b5056fea26469706673582212203035bcb80067001eccacae59789a8b645e0fb462bbde16a831d8df795b9b51d564736f6c63430008070033",
  "immutableReferences": {},
  "source": "// SPDX-License-Identifier: MIT\npragma solidity ^0.8.7;\n/*\n * @title Buddie The Platypus\n */\nimport \"@openzeppelin/contracts/token/ERC721/ERC721.sol\";\nimport \"@openzeppelin/contracts/token/ERC721/extensions/ERC721URIStorage.sol\";\nimport \"@openzeppelin/contracts/access/Ownable.sol\";\nimport \"@openzeppelin/contracts/finance/PaymentSplitter.sol\";\nimport \"@openzeppelin/contracts/utils/Strings.sol\";\n\ncontract BuddieThePlatypus is\n    ERC721,\n    ERC721URIStorage,\n    PaymentSplitter,\n    Ownable\n{\n    uint256 TOTAL = 999;\n    uint256 count = 0;\n    uint256 price = 12000000000000000000;\n    string URI;\n\n    constructor(\n        string memory _URI,\n        address[] memory _payees,\n        uint256[] memory _shares\n    ) ERC721(\"Buddie the Platypus\", \"BUDD\") PaymentSplitter(_payees, _shares) {\n        URI = _URI;\n    }\n\n    /**\n     * @notice Mint!\n     * @param _count The number of NFTs to mint!\n     */\n\n    function publicMint(uint256 _count) public payable {\n        require(msg.value >= price * _count, \"Not enough Matic to mint.\");\n        require(count + _count <= TOTAL, \"Can't mind that many Buddies.\");\n\n        // Hashlips generator starts at 1, but count needs to start at 0, so adding\n        // +1 to count to get tokenId.\n        _mint(msg.sender, count + 1);\n\n        count = count += 1;\n    }\n\n    /**\n     * @notice get the total number of NFTs minted\n     */\n    function getTotal() public view returns (uint256) {\n        return count;\n    }\n\n    /**\n     * @notice Get the current minting price\n     */\n    function getPrice() public view returns (uint256) {\n        return price;\n    }\n\n    /**\n     * @notice Set the metadata URI\n     * @param _URI The URI to set.\n     */\n\n    function setURI(string memory _URI) public onlyOwner {\n        URI = _URI;\n    }\n\n    /**\n     * @notice Set the current price\n     * @param _price The price in matic to set.\n     */\n\n    function setPrice(uint256 _price) public onlyOwner {\n        price = _price;\n    }\n\n    // The following functions are overrides required by Solidity.\n\n    function _burn(uint256 tokenId)\n        internal\n        override(ERC721, ERC721URIStorage)\n        onlyOwner\n    {\n        super._burn(tokenId);\n    }\n\n    /**\n     * @notice The URI for a given token.\n     * @param tokenId The ID of the token to check.\n     */\n\n    function tokenURI(uint256 tokenId)\n        public\n        view\n        override(ERC721, ERC721URIStorage)\n        returns (string memory)\n    {\n        return\n            string(abi.encodePacked(URI, Strings.toString(tokenId), \".json\"));\n    }\n}\n",
  "sourcePath": "/Users/lemuelcanady/github/Buddies/contracts/Buddies.sol",
  "compiler": {
    "name": "solc",
    "version": "0.8.7+commit.e28d00a7.Emscripten.clang"
  },
  "schemaVersion": "3.4.4",
  "updatedAt": "2022-02-26T23:42:12.966Z",
  "networkType": "ethereum",
  "devdoc": {
    "kind": "dev",
    "methods": {
      "approve(address,uint256)": {
        "details": "See {IERC721-approve}."
      },
      "balanceOf(address)": {
        "details": "See {IERC721-balanceOf}."
      },
      "getApproved(uint256)": {
        "details": "See {IERC721-getApproved}."
      },
      "isApprovedForAll(address,address)": {
        "details": "See {IERC721-isApprovedForAll}."
      },
      "name()": {
        "details": "See {IERC721Metadata-name}."
      },
      "owner()": {
        "details": "Returns the address of the current owner."
      },
      "ownerOf(uint256)": {
        "details": "See {IERC721-ownerOf}."
      },
      "payee(uint256)": {
        "details": "Getter for the address of the payee number `index`."
      },
      "publicMint(uint256)": {
        "params": {
          "_count": "The number of NFTs to mint!"
        }
      },
      "release(address)": {
        "details": "Triggers a transfer to `account` of the amount of Ether they are owed, according to their percentage of the total shares and their previous withdrawals."
      },
      "release(address,address)": {
        "details": "Triggers a transfer to `account` of the amount of `token` tokens they are owed, according to their percentage of the total shares and their previous withdrawals. `token` must be the address of an IERC20 contract."
      },
      "released(address)": {
        "details": "Getter for the amount of Ether already released to a payee."
      },
      "released(address,address)": {
        "details": "Getter for the amount of `token` tokens already released to a payee. `token` should be the address of an IERC20 contract."
      },
      "renounceOwnership()": {
        "details": "Leaves the contract without owner. It will not be possible to call `onlyOwner` functions anymore. Can only be called by the current owner. NOTE: Renouncing ownership will leave the contract without an owner, thereby removing any functionality that is only available to the owner."
      },
      "safeTransferFrom(address,address,uint256)": {
        "details": "See {IERC721-safeTransferFrom}."
      },
      "safeTransferFrom(address,address,uint256,bytes)": {
        "details": "See {IERC721-safeTransferFrom}."
      },
      "setApprovalForAll(address,bool)": {
        "details": "See {IERC721-setApprovalForAll}."
      },
      "setPrice(uint256)": {
        "params": {
          "_price": "The price in matic to set."
        }
      },
      "setURI(string)": {
        "params": {
          "_URI": "The URI to set."
        }
      },
      "shares(address)": {
        "details": "Getter for the amount of shares held by an account."
      },
      "supportsInterface(bytes4)": {
        "details": "See {IERC165-supportsInterface}."
      },
      "symbol()": {
        "details": "See {IERC721Metadata-symbol}."
      },
      "tokenURI(uint256)": {
        "params": {
          "tokenId": "The ID of the token to check."
        }
      },
      "totalReleased()": {
        "details": "Getter for the total amount of Ether already released."
      },
      "totalReleased(address)": {
        "details": "Getter for the total amount of `token` already released. `token` should be the address of an IERC20 contract."
      },
      "totalShares()": {
        "details": "Getter for the total shares held by payees."
      },
      "transferFrom(address,address,uint256)": {
        "details": "See {IERC721-transferFrom}."
      },
      "transferOwnership(address)": {
        "details": "Transfers ownership of the contract to a new account (`newOwner`). Can only be called by the current owner."
      }
    },
    "version": 1
  },
  "userdoc": {
    "kind": "user",
    "methods": {
      "getPrice()": {
        "notice": "Get the current minting price"
      },
      "getTotal()": {
        "notice": "get the total number of NFTs minted"
      },
      "publicMint(uint256)": {
        "notice": "Mint!"
      },
      "setPrice(uint256)": {
        "notice": "Set the current price"
      },
      "setURI(string)": {
        "notice": "Set the metadata URI"
      },
      "tokenURI(uint256)": {
        "notice": "The URI for a given token."
      }
    },
    "version": 1
  }
}